:100000000C9472000C94860D0C94860D0C94860D45
:100010000C94860D0C94860D0C94860D0C94860D14
:100020000C94860D0C94860D0C94860D0C94860D04
:100030000C94780D0C94860D0C94860D0C94860D02
:100040000C94860D0C94860D0C94860D0C94860DE4
:100050000C94860D0C94860D0C94860D0C94860DD4
:100060000C94860D0C94490D0C94860D0C94860D01
:100070000C94860D0C94860D0C94860D0C94860DB4
:100080000C94860D0C94860D0C94860D0C94860DA4
:100090000C94860D0C94860D0C94860D0C94860D94
:1000A0000C94860D0C94860D0C94860D0C94860D84
:1000B0000C94860D0C94860D0C94860D0C94860D74
:1000C0000C94860D0C94860D0C94860D0C94860D64
:1000D0000C94860D0C94860D0C94860D0C94860D54
:1000E0000C94860D1124A0E0B4E0ADBFBEBF0F920A
:1000F000A0E0B4E0C0E7D4E0E6E5FEE1AC17BD0760
:1001000019F005900D92FACFA0E7B4E082E395E0F4
:1001100020E0A817B90711F02D93FBCF0E94FA0138
:100120001F93162F0E94EB00DB01FD01319720E0A9
:1001300030E0123039F4E217F307E9F09081982BA0
:10014000908317C0E217F307B1F0982F9095408184
:1001500049234083103039F0A217B30761F09C9116
:10016000982B9C9306C0A217B30729F08C91892382
:100170008C931F9108950E948E010E94EB00DB0179
:10018000129720E030E0A217B30739F09C91982332
:1001900081E0903009F480E008950E948E011F9361
:1001A000162F11700E94EB00DB0120E030E01030D0
:1001B00039F0A217B30769F09C91982B9C9307C064
:1001C000A217B30731F09C91809589238C931F91DE
:1001D00008950E948E01883040F491E0803019F03B
:1001E000990F8150E9F762E23DC0803148F48850B0
:1001F00091E0803019F0990F8150E9F765E232C043
:10020000883148F4805191E0803019F0990F815085
:10021000E9F768E227C0803248F4885191E08030E5
:1002200019F0990F8150E9F76BE21CC0873248F44E
:10023000805291E0803019F0990F8150E9F76EE219
:1002400011C0873291F0803380F4885221E08030F1
:1002500021F0982F220F9150E9F790E0883008F4B0
:10026000922F61E370E0892F0895982F9053963074
:1002700048F481E0903019F0880F9150E9F764E379
:1002800070E00895982F9853973048F481E09030AB
:1002900019F0880F9150E9F762E071E00895982F06
:1002A0009E7F903471F4805421E0803021F0982FAB
:1002B000220F9150E9F790E0883008F4922F65E022
:1002C00011C0982F987F903579F4805521E08030C7
:1002D00021F0982F220F9150E9F790E0883008F430
:1002E000922F6BE071E0BFCF62E270E08FEF089574
:1002F000EF92FF920F931F938B017C0180E594E0B6
:1003000066E170E00E94A601C701B8010E94A60143
:100310000E94950187E00E94EB02FCCF80E394E00D
:1003200067E170E00E94780108958091C0008072BA
:100330008030D9F38DE08093C6008091C000807238
:100340008030D9F38AE08093C600089520E030E041
:10035000A901F901A1E046175707E207F30708F4DE
:10036000A0E0A170A03081F4DC01A40FB51FAC9116
:10037000B091C000B072B030D9F3A093C6004F5F07
:100380005F4FEF4FFF4FE6CF0895EF92FF920F932D
:100390001F938C017B012AE030E040E050E081E0D7
:1003A000E216F3060407150708F080E0817080303C
:1003B00061F42AE030E040E050E0B701C8010E945B
:1003C000980DB901CA010E94C5018091C0008072D8
:1003D0008030D9F32AE030E040E050E0B701C801B6
:1003E0000E94980D60636093C6001F910F91FF906B
:1003F000EF9008951F9381E08093730480937404B9
:1004000082E395E040E052E2481B590B5695479530
:1004100056954795569547955695479556954795C0
:1004200010E060E00E94220F1093C50087E68093E1
:10043000C40088E98093C10086E08093C20078946C
:100440000E94610BCF92DF92EF92FF920F931F9366
:10045000FC018F011595079515950795159507953D
:100460001595079515950795159507951595079574
:100470001595079515950795159507951595079564
:100480001595079515950795159507951595079554
:10049000C801880F991F880F991F880F991F880F0F
:1004A000991F880F991F880F991F880F991F880F10
:1004B000991F169507951695079516950795169504
:1004C0000795169507951695079516950795169510
:1004D0000795802B912BA0E0B0E0820F931F041FA3
:1004E000151F6A1F7B1F6D01EA1FFB1FCB01880FC1
:1004F000991F880F991F880F991F880F991F880FC0
:10050000991F880F991F880F991F880F991F16959B
:1005100007951695079516950795169507951695BF
:100520000795169507951695079516950795082B27
:10053000192B769567957695679576956795769557
:10054000679576956795769567957695679576958F
:100550006795EE0FFF1FEE0FFF1FEE0FFF1FEE0F51
:10056000FF1FEE0FFF1FEE0FFF1FEE0FFF1FEE0F1F
:10057000FF1FE62BF72B8091760490917704209152
:10058000780430917904800F911F2E1F3F1F9093A4
:10059000770480937604309379042093780481E083
:1005A000960102171307E207F30709F080E0817054
:1005B000803051F480E07F010E94EB02F70101508E
:1005C0001040E040F040EBCF1F910F91FF90EF9073
:1005D000DF90CF900895F894A8959091600098616D
:1005E0009093600090916000982B906490936000CD
:1005F000789481E083BF889580E083BF08952F922F
:100600003F924F925F926F927F928F929F92AF92A2
:10061000BF92CF92DF92EF92FF920F931F93CF93EF
:10062000DF93CDB7DEB722970FB6F894DEBF0FBECB
:10063000CDBF21E030E0FC01208731872091780494
:1006400030917904C90196958795969587959695E9
:10065000879596958795969587959695879596957E
:100660008795969587958687978760917604709190
:1006700077043B01660C771C660C771C660C771CB4
:10068000660C771C660C771C660C771C660C771C56
:10069000660C771C62867386220F331F220F331F6E
:1006A000220F331F220F331F220F331F220F331F3E
:1006B000220F331F220F331F769567957695679526
:1006C000769567957695679576956795769567950E
:1006D0007695679576956795622B732B64877587FA
:1006E0001F01E0E0FAECAAE9BBE300E010E09801AA
:1006F000A3015F016D0178010E946F0E29014A017B
:1007000069837A83E0E0F6E3A5E6B4EC0FEF1FEF30
:100710005F016D0178010E94E40DF10120833183B6
:10072000460D571DC201880F991F880F991F880F0A
:10073000991F880F991F880F991F880F991F880F7D
:10074000991F880F991F880F991F880F991F880F6D
:10075000991F880F991F880F991F880F991F842B45
:10076000952B828393835694479456944794C4015F
:10077000880F991F880F991F880F991F880F991F3D
:10078000880F991F880F991F880F991F880F991F2D
:10079000880F991F880F991F880F991F880F991F1D
:1007A000880F991F880F991F8429952996948794FB
:1007B0009694879429813A81220F331F220F331F89
:1007C000220F331F220F331F220F331F220F331F1D
:1007D000220F331F220F331F220F331F220F331F0D
:1007E000220F331F220F331F220F331F220F331FFD
:1007F000282939298052924E2740384D55954795E2
:1008000055954795559547955595479555954795D0
:1008100055954795559547955595479555954795C0
:1008200055954795559547955595479555954795B0
:100830005595479555954795842B952B848395839E
:10084000422B532B50684683578322960FB6F89459
:10085000DEBF0FBECDBFDF91CF911F910F91FF90F3
:10086000EF90DF90CF90BF90AF909F908F907F9050
:100870006F905F904F903F902F9008952F923F92EE
:100880004F925F926F927F928F929F92AF92BF92A0
:10089000CF92DF92EF92FF920F931F93CF93DF934C
:1008A000CDB7DEB7C056D0400FB6F894DEBF0FBE4E
:1008B000CDBF2801AFAAB8AE6BAF7CAF49AF5AAF7E
:1008C000390121E08DAF9EAF99230AF020E021701D
:1008D000203009F037C0CE01CF960E94FF020FB63C
:1008E0002F960EAD1FAD2F970FBE0FB62D962EACC7
:1008F0003FAC2D970FBE0FB62B968EAC9FAC2B97AF
:100900000FBE0FB62996AEADBFAD29970FBE0FB67D
:1009100027964EAD5FAD27970FBE0FB625968EADCD
:100920009FAD25970FBE0FB623966EAD7FAD239773
:100930000FBE0FB621962EAD3FAD21970FBE2BA354
:100940003CA355C00091780410917904C801880F28
:10095000991F880F991F880F991F880F991F880F5B
:10096000991F880F991F880F991F880F991F8090D2
:100970007604909077041401369427943694279443
:100980003694279436942794369427943694279453
:100990003694279436942794282A392A1695079551
:1009A000169507951695079516950795169507952B
:1009B000169507951695079516950795880C991C19
:1009C000880C991C880C991C880C991C880C991C03
:1009D000880C991C880C991C880C991C40E050E8E4
:1009E00080E090E0A1E0B0E0BC018BA39CA34BA70A
:1009F0005CA72DAD3EAD4223532321E055230AF4DD
:100A000020E02170203009F421C20D8B1E8B0FB61F
:100A100061966EAE7FAE61970FBE20E834E00FB6F0
:100A2000A1962EAF3FAFA1970FBEAC01440F551F4B
:100A3000440F551F6B8F7C8F9B01369527953695FC
:100A4000279536952795369527953695279536958A
:100A5000279536952795369527953695279536957A
:100A6000279536952795369527953695279536956A
:100A70002795242B352BEBA5FCA5AF01440F551F63
:100A8000440F551F969587959695879596958795CA
:100A9000969587959695879596958795969587953A
:100AA000969587959695879596958795969587952A
:100AB000969587959695879596958795842B952BF2
:100AC000AF01569547955695479556954795569536
:100AD00047955695479556954795569547955695FA
:100AE00047955695479556954795569547955695EA
:100AF000479556954795569547954170507060E0DB
:100B000070E0205830488E449842424F5F4F6F4FFC
:100B10007F4FEF2FEE23E1E00AF4E0E0E170E030F8
:100B2000AD83BE8309F4D901E03089AA9AAA11F4F1
:100B300089AB9AABE0302FA638AA11F44FA758AB77
:100B4000E0308D899E898DA79EA711F46DA77EA7A1
:100B500089AD9AAD0FB663968EAF9FAF63970FBE08
:100B60006BAD7CAD0FB665966EAF7FAF65970FBE70
:100B70009B01220F331F220F331F96958795969561
:100B80008795969587959695879596958795969549
:100B90008795969587959695879596958795969539
:100BA0008795969587959695879596958795969529
:100BB0008795822B932BEDADFEAD0FB66796EEAF0A
:100BC000FFAF67970FBEAF01440F551F440F551F6E
:100BD0009B01369527953695279536952795369519
:100BE00027953695279536952795369527953695E9
:100BF00027953695279536952795369527953695D9
:100C000027953695279536952795242B352BAF01BB
:100C100056954795569547955695479556954795B8
:100C200056954795569547955695479556954795A8
:100C30005695479556954795569547955695479598
:100C400056954795569547954170507080589048F5
:100C50002E443842424F5F4F60E070E06F4F7F4F4D
:100C6000EF2FEE23E1E00AF4E0E0E170AFA8B8ACCA
:100C70000FB66996AEAEBFAE69970FBEE030A9A2BF
:100C8000BAA211F489A39AA30FB66B96CEAEDFAECB
:100C90006B970FBEE030CF8ED8A211F42F8F38A300
:100CA0000FB66D96EEAEFFAE6D970FBEE030ED8ED7
:100CB000FE8E11F44D8F5E8F2B8A3C8A8B869C862C
:100CC000CBAADCAAEDAAFEAA0FB66F964EAE5FAE17
:100CD0006F970FBEE03049865A8609F42B01AF8723
:100CE000B88B9D0189A19AA1281B390B49A95AA942
:100CF0008F8D98A1480B590B6FA578A98D8D9E8D6E
:100D0000680B790B8DA59EA54D865E868409950995
:100D1000E0E0FAECAAE9BBE35F016D01E0E0F0E09E
:100D20007F0187010E94E40DEB8DFC8DFF73A9AD5F
:100D3000BAADBF734BA05CA046185708698A7A8A7F
:100D4000EB83FC834F018A0A9B0A1D01F401F59590
:100D5000E795F595E795F595E795F595E795F5957B
:100D6000E795F595E795F595E795F595E795F5956B
:100D7000E795F595E795F595E795F595E795F5955B
:100D8000E795F595E795F595E795420E531E841E78
:100D9000951E6E1F7F1FE81FF91F9201A4016F8B24
:100DA000788FE98FFA8FCF01E0E0FAEC3F01530131
:100DB000EAE9FBE36F010E943E0E2DA33EA34FA381
:100DC00058A769A77AA78F8398870E94E40D8201AC
:100DD000D801A21BB30B24019401240B350B898984
:100DE0009A89A80FB91F29823A82221D331DA615A0
:100DF000B7058AE99BE32807390781E00CF080E01A
:100E00008170FE01E15BFF4F80306FA878AC09F084
:100E100048C08DA19EA18F5F9F4F8DA39EA38FA1E0
:100E200098A58F4F9F4F8FA398A789A59AA58F4FFD
:100E30009F4F89A79AA78F8198858F4F9F4FA0506A
:100E4000BA4C2A493B43E984FA844FC061E02FA998
:100E500038AD2A173B07C804D904E204F30440065E
:100E600051060CF460E061705D01A21AB30A9401AE
:100E70002C093D09A1014E095F09C80184099509A2
:100E8000603009F0A0C161E0792F77230AF060E0BB
:100E90006170603009F497C18FEF9FE70FEF1FEF8C
:100EA000F2C341E0532F55230AF440E04170403033
:100EB000E984FA848F819885C1F44DA15EA14150E7
:100EC00050404DA35EA34FA158A5404050404FA3B2
:100ED00058A749A55AA54040504049A75AA7804065
:100EE0009040A050B6432546344C2B883C88389619
:100EF0000FB66196AEAFBFAF61970FBE4BAD5CADA5
:100F00000FB665964EAF5FAF65970FBE6DAD7EAD08
:100F10000FB667966EAF7FAF67970FBE49AD5AADFC
:100F20004070507C422B532B6A010FB663964EAF34
:100F30005FAF63970FBE41E0572F55230AF040E0A3
:100F40004170403009F01FC02DA13EA1620E731EFA
:100F50004BA95CA92FA138A5421F531F2DA93EA95B
:100F600069A57AA5261F371FE81EF91EE682F782BB
:100F70002DAB3EAB248335834BAB5CAB42835383B9
:100F80006082718239C2E987FA874301FC01CD0191
:100F900009AF1AAFABACBCACA501440F551F440F51
:100FA000551FD694C794D694C794D694C794D69414
:100FB000C794D694C794D694C794D694C794D6941D
:100FC000C794D694C794D694C794D694C794D6940D
:100FD000C794D694C794D694C794C42AD52A4DAD45
:100FE0005EADBA01660F771F660F771FB694A794A0
:100FF000B694A794B694A794B694A794B694A794DD
:10100000B694A794B694A794B694A794B694A794CC
:10101000B694A794B694A794B694A794B694A794BC
:10102000B694A794A62AB72A5695479556954795FC
:101030005695479556954795569547955695479594
:101040005695479556954795569547955695479584
:101050005695479556954795569547955695479574
:10106000417050706DA17EA1C60ED71E6FA178A5EC
:10107000A61EB71E69A57AA5461F571F1F01BF01EF
:1010800000E010E0601F711FE2E0F0E0A1E0360137
:10109000C016D1066501A006B1065A014E075F07CA
:1010A0006007710708F4A0E0A170A03009AD1AAD87
:1010B00009F0B7C0DC010FB66196AEAFBFAF619764
:1010C0000FBEA301440F551F440F551F440F551F5A
:1010D000440F551F440F551F440F551F440F551FF4
:1010E000440F551F440F551F440F551F440F551FE4
:1010F000440F551F440F551F440F551F422B532BB0
:101100000FB663964EAF5FAF63970FBE769467944A
:1011100076946794B6019B01220F331F220F331F71
:10112000220F331F220F331F220F331F220F331FB3
:10113000220F331F220F331F220F331F220F331FA3
:10114000220F331F220F331F220F331F220F331F93
:10115000262937290FB665962EAF3FAF65970FBE8C
:101160007695679576956795F501EE0FFF1FEE0F63
:10117000FF1FEE0FFF1FEE0FFF1FEE0FFF1FEE0F03
:10118000FF1FEE0FFF1FEE0FFF1FEE0FFF1FEE0FF3
:10119000FF1FEE0FFF1FEE0FFF1FEE0FFF1FEE0FE3
:1011A000FF1FE62BF72BF068EDAFFEAF0FB667968B
:1011B000EEAFFFAF67970FBE6A012BAF3CAF3401B4
:1011C0002B883C887EC0380100E010E071E0EFA978
:1011D000F8ADAE17BF078C049D042E043F046404D1
:1011E0007504E1E00CF0E0E00A151B0502071307A7
:1011F00004071507080719070CF070E0E723E170F2
:10120000E03011F080E090E8E030B80109F4BA0174
:10121000E030280109F42901E03009F036C28501E7
:1012200034C2CE01815B9F4F0E94170DE985FA857C
:10123000608071804281538124813581E680F7800E
:101240008DA19EA1680E791E8FA198A5481F591FD8
:1012500089A59AA5281F391FE21CF31C0FB66596B5
:101260008EAD9FAD65970FBE8BAF9CAF0FB66396EB
:10127000CEACDFAC63970FBE0FB66196AEADBFAD1F
:1012800061970FBE0FB667966EAD7FAD67970FBEC5
:101290002DAB3EAB24833583E682F7826082718278
:1012A0004BAB5CAB4283538321E06DAF7EAF372FF6
:1012B00033230AF420E0217020302B883C8809F089
:1012C0009BC04D019301200F311F4BA95CA9441D08
:1012D000551D6DA97EA98F89988D681F791FF7010B
:1012E000898D9A8DE81EF91EA1E0B92FBB230AF45F
:1012F000A0E0A170A030A9F4A1E05301A216B306AA
:10130000ABA8BCA8A406B506ADA8BEA8A606B7069D
:101310005F01AE04BF040CF0A0E0A170A03009F0A2
:101320002BC0A1E0C80100E010E008171907040570
:1013300015058F89988D08071907898D9A8D0807DB
:1013400019070CF4A0E0A170A03009AD1AAD09F0A6
:1013500043C0A1E026153705ABA8BCA84A055B052C
:10136000ADA8BEA86A057B05EE06FF060CF0A0E05E
:10137000A170A03009F430C0CE01815B9F4F0E9464
:10138000170DE985FA85E680F780848195818DAB1C
:101390009EAB828193818BAB9CAB608071800FB6DA
:1013A00067968EAD9FAD67970FBE8DAF9EAF0FB6A0
:1013B00065968EAD9FAD65970FBE8BAF9CAF0FB698
:1013C0006396CEACDFAC63970FBE0FB66196AEAD41
:1013D000BFAD61970FBE10C0E985FA8520833183C8
:1013E0004283538364837583E682F78239014BAB72
:1013F0005CAB6DAB7EABD4012DAD3EAD4BA55CA51A
:101400004223532321E055230AF020E021702030AD
:101410004B855C8509F0C4C0EBADFCADAF01440F5A
:10142000551F440F551F96013695279536952795DC
:101430003695279536952795369527953695279590
:101440003695279536952795369527953695279580
:101450003695279536952795369527953695279570
:10146000242B352B8DAC9EACA401440F551F440F8B
:10147000551FF695E795F695E795F695E795F69558
:10148000E795F695E795F695E795F695E795F69540
:10149000E795F695E795F695E795F695E795F69530
:1014A000E795F695E795F695E795E42BF52BB401CE
:1014B0007695679576956795769567957695679510
:1014C0007695679576956795769567957695679500
:1014D00076956795769567957695679576956795F0
:1014E000769567957695679561707070205830484D
:1014F000EE44F8425F01624F7F4FE0E0F0E0EF4FD3
:10150000FF4F41E0992051E00AF450E05170503013
:1015100009F47F01503011F46DAB7EAB5030898DF2
:101520009A8DED85FE8511F4ABAABCAA50306B8D67
:101530007C8D09F439012BA13CA1A227B327960188
:10154000262737273F7360E070E0A617B707260706
:101550003707660777076607770709F440E04170A9
:1015600040306F89788D09F038C0A1E02F85388927
:10157000621673062BA93CA949A95AA92407350765
:101580002DA93EA94FA558A9240735072DA53EA58D
:10159000E206F30609F0A0E0A170A030F1F075C0FA
:1015A00081E02D813E81621673062BA93CA9240798
:1015B00035072DA93EA9220533052D893E89E2066E
:1015C000F30609F080E081708030898D9A8DED8579
:1015D000FE856F89788D09F058C081E02F853889A4
:1015E00049A15AA12417350729A93AA94F8D58A115
:1015F000240735072FA538A94D8D5E8D24073507A3
:101600002DA53EA52E073F070CF080E081708030AD
:1016100009F035C061E02BA13CA149895A89241702
:1016200035078B819C8129813A818207930708F4D1
:1016300060E061708FEF9FE70FEF1FEF60302F8545
:10164000388909F020C041E069A17AA1261737073F
:1016500029A93AA96F8D78A1260737072FA538A9A0
:101660006D8D7E8D260737072DA53EA52E073F07DA
:1016700009F440E0417040302801B80131F480E0C5
:1016800090E800E010E02801B8019801A201C05ADA
:10169000DF4F0FB6F894DEBF0FBECDBFDF91CF9105
:1016A0001F910F91FF90EF90DF90CF90BF90AF9080
:1016B0009F908F907F906F905F904F903F902F9072
:1016C00008952F923F924F925F926F927F928F92E6
:1016D0009F92AF92BF92CF92DF92EF92FF920F93C1
:1016E0001F93CF93DF93CDB7DEB7A8970FB6F894CB
:1016F000DEBF0FBECDBF8EE362E00E9490008DE39F
:1017000060E00E949000CE0149968B839C8300E0AC
:1017100010E0CE01099689839A838B819C810E9477
:10172000FF028FA198A58D839E83EDA0FEA0CBA084
:10173000DCA0A9A0BAA08F8C98A08D8D9E8D8F83E0
:1017400098874B8C5C8C298C3A8C8EE360E00E94ED
:10175000CF0020ED37E0A801B801C8010E942202A5
:101760008EE361E00E94CF0020E137E2A801B801DA
:10177000C8010D811E810E9422028EE360E00E945A
:10178000CF00F0E07F2E8DE30E94BD00817080309D
:1017900009F022C0F72DF395FB30A0F39101A201CF
:1017A0006F817885C4010E943E04F0E0E1E0A8E486
:1017B000B9EE2A173B0723E631E04207530720E042
:1017C00030E062077307820793070CF0E0E0E170F6
:1017D000E03009F0D7CF3FC089819A810E94FF0293
:1017E00010E08F89988D8F839887ED88FE88CB884D
:1017F000DC88A988BA888F8498886D847E844B841D
:101800005C8429843A848DE30E94BD00817080301D
:1018100009F426C013951B30B0F39101A201B30166
:10182000C4010F8118850E943E0410E0E1E0A8E4A5
:10183000B9EE2A173B0723E631E04207530720E0C1
:1018400030E062077307820793070CF4E0E0E17071
:10185000E03009F4D8CF80E090E07C01870120C01F
:101860009101A201B301C4010F8118850E943E04B9
:10187000E8EEF3E05F01E0E0F0E06F017601860161
:101880000E943E0EB901CA0123EB36E0A6010E9478
:10189000880D20E137E2A6010E94BA0D89017A0184
:1018A00086E694E06AE070E00E94A6018091C000A4
:1018B00080728030D9F380E28093C60081E09F2D52
:1018C00099230AF480E08170803029F0B801C701C3
:1018D00000E010E010C08091C00080728030D9F329
:1018E0008DE28093C60080E090E0BC01601B710B2C
:1018F0008C018E099F090E94C5010E94950120E07C
:1019000031EE45EF55E0B801C8010E94220205CF33
:101910009C0180E090E02817390709F486C0F9019E
:101920006681778141E0572F55230AF440E04170EA
:10193000F901403049F02085318542855385648521
:1019400075858685978508954481558122813381E7
:10195000FA01EE0FFF1FEE0FFF1F36952795369504
:10196000279536952795369527953695279536955B
:10197000279536952795369527953695279536954B
:10198000279536952795369527953695279536953B
:1019900027952E2B3F2BFB01EE0FFF1FEE0FFF1F96
:1019A000569547955695479556954795569547951B
:1019B000569547955695479556954795569547950B
:1019C00056954795569547955695479556954795FB
:1019D00056954795569547954E2B5F2B769567956F
:1019E00076956795769567957695679576956795DB
:1019F00076956795769567957695679576956795CB
:101A000076956795769567957695679576956795BA
:101A10007695679561707070205830484E445842F2
:101A2000624F7F4F8F4F9F4F08950E948E01EF921C
:101A3000FF920F931F938C0140E050E004171507AD
:101A400009F425C0F8012681378181E033230AF4A7
:101A500080E081708030B1F4C8017A010E94880C66
:101A6000F801868797876487758742875387208721
:101A70003187E482F582E682F782828193819F73C7
:101A8000828393831F910F91FF90EF9008950E949E
:101A90008E010F921F920FB60F9200242F938F93F7
:101AA0009F93AF93BF938091C6009091C0009C71AB
:101AB0009030A1F49091300520913105921B90381F
:101AC00069F0909130059395909330059091300591
:101AD0009F77A92FBB27A055BB4F8C93BF91AF9188
:101AE0009F918F912F910F900FBE1F900F9018957F
:101AF0000F930027A89504BF009160000861009330
:101B000060000027009360000F9118958895FECF24
:101B1000DB018F939F930E94D90DBF91AF91A29F3C
:101B2000800D911DA39F900DB29F900D11240895DB
:101B3000A1E21A2EAA1BBB1BFD010DC0AA1FBB1FD1
:101B4000EE1FFF1FA217B307E407F50720F0A21B43
:101B5000B30BE40BF50B661F771F881F991F1A94B0
:101B600069F760957095809590959B01AC01BD01DA
:101B7000CF010895052E97FB1EF400940E94D10D0D
:101B800057FD07D00E94980D07FC03D04EF40C942B
:101B9000D10D50954095309521953F4F4F4F5F4F58
:101BA000089590958095709561957F4F8F4F9F4FC9
:101BB00008950E94130FA59F900DB49F900DA49FB0
:101BC000800D911D11240895DF93CF931F930F93E0
:101BD0009A9DF02D219FF00D8B9DF00D8A9DE02D9B
:101BE000F10D039FF00D029FE00DF11D4E9DE00DE4
:101BF000F11D5E9DF00D4F9DF00D7F936F93BF9291
:101C0000AF925F934F93D5010E94130F8B01AC01EC
:101C1000D7010E94130FEB01E80FF91FD6010E94B4
:101C2000330E2F913F91D6010E94130FC60FD71F7D
:101C3000E81FF91FAF91BF910E94330E2F913F9182
:101C40000E94130FC60FD71FE81FF91FD6010E946D
:101C5000130FE60FF71F9801BE01CF010F911F91DF
:101C6000CF91DF9108950E94130F460F571FC81F91
:101C7000D91F08F431960895689401C0E894F92FAB
:101C8000F12B12F00C94700EA0E0B0E0E9E2FFE05E
:101C90000C94E20E092E059422F40E94CC0E11231E
:101CA00092F4F0E80F26FFEFE094F0940095109581
:101CB000B094C094D094A194BF0ACF0ADF0AEF0A6F
:101CC000FF0A0F0B1F0B0E947B0E07FC0E94CC0E1D
:101CD000CDB7DEB7ECE00C94FE0E689401C0E8943A
:101CE0008F929F92CF93DF930E947B0EDF91CF91D3
:101CF0009F908F90089588249924F401E401B0E422
:101D00009F93AA279A158B049C04ED05FE05CF0529
:101D1000D007A10798F4AD2FDC2FCF2FFE2FE92D90
:101D2000982C892E982F872F762F652F542F432F8D
:101D3000322F2227B85031F7BF9127C01B2EBF91F9
:101D4000BB27220F331F441F551F661F771F881F95
:101D5000991F881C991CEE1FFF1FCC1FDD1FAA1F97
:101D6000BB1F8A149B04EC05FD05CE05DF05A0070B
:101D7000B10748F08A189B08EC09FD09CE09DF0974
:101D8000A00BB10B21601A94E1F62EF49401AF017F
:101D9000BE01CD01000C08956095709580959095D9
:101DA00030954095509521953F4F4F4F5F4F6F4F66
:101DB0007F4F8F4F9F4F08952F923F924F925F9288
:101DC0006F927F928F929F92AF92BF92CF92DF924B
:101DD000EF92FF920F931F93CF93DF93CDB7DEB7B0
:101DE000CA1BDB0B0FB6F894DEBF0FBECDBF199434
:101DF0002A88398848885F846E847D848C849B849B
:101E0000AA84B984C884DF80EE80FD800C811B81A8
:101E1000AA81B981CE0FD11D0FB6F894DEBF0FBED7
:101E2000CDBFED010895A29FB001B39FC001A39F54
:101E3000700D811D1124911DB29F700D811D112403
:101E4000911D0895DC0101C06D9341505040E0F7B1
:101E500008950C944A0E6F7574206F66206D656D41
:101E60006F7279000000696E646578206F75742068
:101E70006F662072616E6765000000000000000060
:101E80000000000000006E696C20706F696E746560
:101E9000722064657265666572656E636500000038
:101EA00000000000000070616E69633A2072756E78
:101EB00074696D65206572726F723A20446973743B
:061EC000616E63653A202B
:00000001FF
